{
    "_format": "hh-sol-artifact-1",
    "contractName": "HealthDataRegistry",
    "sourceName": "contracts/MedicalRecords.sol",
    "abi": [
        {
            "anonymous": false,
            "inputs": [
                {
                    "indexed": false,
                    "internalType": "string",
                    "name": "patientId",
                    "type": "string"
                },
                {
                    "indexed": false,
                    "internalType": "string",
                    "name": "doctorId",
                    "type": "string"
                },
                {
                    "indexed": false,
                    "internalType": "uint256",
                    "name": "expiry",
                    "type": "uint256"
                }
            ],
            "name": "AccessGranted",
            "type": "event"
        },
        {
            "anonymous": false,
            "inputs": [
                {
                    "indexed": false,
                    "internalType": "string",
                    "name": "patientId",
                    "type": "string"
                },
                {
                    "indexed": false,
                    "internalType": "string",
                    "name": "doctorId",
                    "type": "string"
                }
            ],
            "name": "AccessRequested",
            "type": "event"
        },
        {
            "anonymous": false,
            "inputs": [
                {
                    "indexed": false,
                    "internalType": "string",
                    "name": "patientId",
                    "type": "string"
                },
                {
                    "indexed": false,
                    "internalType": "string",
                    "name": "doctorId",
                    "type": "string"
                }
            ],
            "name": "AccessRevoked",
            "type": "event"
        },
        {
            "anonymous": false,
            "inputs": [
                {
                    "indexed": false,
                    "internalType": "string",
                    "name": "patientId",
                    "type": "string"
                },
                {
                    "indexed": false,
                    "internalType": "string",
                    "name": "cid",
                    "type": "string"
                },
                {
                    "indexed": false,
                    "internalType": "uint256",
                    "name": "timestamp",
                    "type": "uint256"
                }
            ],
            "name": "RecordAdded",
            "type": "event"
        },
        {
            "inputs": [
                {
                    "internalType": "string",
                    "name": "patientId",
                    "type": "string"
                },
                {
                    "internalType": "string",
                    "name": "cid",
                    "type": "string"
                },
                {
                    "internalType": "string",
                    "name": "metadata",
                    "type": "string"
                }
            ],
            "name": "addRecord",
            "outputs": [],
            "stateMutability": "nonpayable",
            "type": "function"
        },
        {
            "inputs": [
                {
                    "internalType": "string",
                    "name": "patientId",
                    "type": "string"
                },
                {
                    "internalType": "string",
                    "name": "doctorId",
                    "type": "string"
                }
            ],
            "name": "getAccessExpiry",
            "outputs": [
                {
                    "internalType": "uint256",
                    "name": "",
                    "type": "uint256"
                }
            ],
            "stateMutability": "view",
            "type": "function"
        },
        {
            "inputs": [
                {
                    "internalType": "string",
                    "name": "patientId",
                    "type": "string"
                }
            ],
            "name": "getRecords",
            "outputs": [
                {
                    "components": [
                        {
                            "internalType": "string",
                            "name": "cid",
                            "type": "string"
                        },
                        {
                            "internalType": "string",
                            "name": "metadata",
                            "type": "string"
                        },
                        {
                            "internalType": "uint256",
                            "name": "timestamp",
                            "type": "uint256"
                        }
                    ],
                    "internalType": "struct HealthDataRegistry.Record[]",
                    "name": "",
                    "type": "tuple[]"
                }
            ],
            "stateMutability": "view",
            "type": "function"
        },
        {
            "inputs": [
                {
                    "internalType": "string",
                    "name": "patientId",
                    "type": "string"
                },
                {
                    "internalType": "string",
                    "name": "doctorId",
                    "type": "string"
                },
                {
                    "internalType": "uint256",
                    "name": "durationSeconds",
                    "type": "uint256"
                }
            ],
            "name": "grantAccess",
            "outputs": [],
            "stateMutability": "nonpayable",
            "type": "function"
        },
        {
            "inputs": [
                {
                    "internalType": "string",
                    "name": "patientId",
                    "type": "string"
                },
                {
                    "internalType": "string",
                    "name": "doctorId",
                    "type": "string"
                }
            ],
            "name": "isAccessGranted",
            "outputs": [
                {
                    "internalType": "bool",
                    "name": "",
                    "type": "bool"
                }
            ],
            "stateMutability": "view",
            "type": "function"
        },
        {
            "inputs": [
                {
                    "internalType": "string",
                    "name": "patientId",
                    "type": "string"
                },
                {
                    "internalType": "string",
                    "name": "doctorId",
                    "type": "string"
                }
            ],
            "name": "requestAccess",
            "outputs": [],
            "stateMutability": "nonpayable",
            "type": "function"
        },
        {
            "inputs": [
                {
                    "internalType": "string",
                    "name": "patientId",
                    "type": "string"
                },
                {
                    "internalType": "string",
                    "name": "doctorId",
                    "type": "string"
                }
            ],
            "name": "revokeAccess",
            "outputs": [],
            "stateMutability": "nonpayable",
            "type": "function"
        }
    ],
    "bytecode": "0x6080604052348015600f57600080fd5b506110208061001f6000396000f3fe608060405234801561001057600080fd5b506004361061007d5760003560e01c80634d46e9001161005b5780634d46e900146100d657806384714f951461010657806386e80b71146101365780639157766c146101665761007d565b806316157f6c14610082578063241f31441461009e5780633f723c62146100ba575b600080fd5b61009c6004803603810190610097919061073e565b610182565b005b6100b860048036038101906100b3919061073e565b6101bf565b005b6100d460048036038101906100cf91906107b6565b61023c565b005b6100f060048036038101906100eb919061073e565b61031c565b6040516100fd9190610876565b60405180910390f35b610120600480360381019061011b919061073e565b610361565b60405161012d91906108ac565b60405180910390f35b610150600480360381019061014b91906108c7565b6103a9565b60405161015d9190610ab7565b60405180910390f35b610180600480360381019061017b9190610b05565b610554565b005b7f882700570d33d67e582af1413a4cc9838503d9b47ef0614ce830ef23510ceba882826040516101b3929190610bda565b60405180910390a15050565b60006001836040516101d19190610c4d565b9081526020016040518091039020826040516101ed9190610c4d565b9081526020016040518091039020819055507fd3e2d08262b3e953832b809909b3e06137ec1523f3bbf5c56c8716b235d129238282604051610230929190610bda565b60405180910390a15050565b6000604051806060016040528084815260200183815260200142815250905060008460405161026b9190610c4d565b908152602001604051809103902081908060018154018082558091505060019003906000526020600020906003020160009091909190915060008201518160000190816102b89190610e70565b5060208201518160010190816102ce9190610e70565b506040820151816002015550507f2fda3ce68e3316f21c26863e3b64c0bca4dfc4d6cb5777ef08d41c56482e222184844260405161030e93929190610f42565b60405180910390a150505050565b600060018360405161032e9190610c4d565b90815260200160405180910390208260405161034a9190610c4d565b908152602001604051809103902054905092915050565b6000426001846040516103749190610c4d565b9081526020016040518091039020836040516103909190610c4d565b9081526020016040518091039020541015905092915050565b60606000826040516103bb9190610c4d565b9081526020016040518091039020805480602002602001604051908101604052809291908181526020016000905b82821015610549578382906000526020600020906003020160405180606001604052908160008201805461041c90610c93565b80601f016020809104026020016040519081016040528092919081815260200182805461044890610c93565b80156104955780601f1061046a57610100808354040283529160200191610495565b820191906000526020600020905b81548152906001019060200180831161047857829003601f168201915b505050505081526020016001820180546104ae90610c93565b80601f01602080910402602001604051908101604052809291908181526020018280546104da90610c93565b80156105275780601f106104fc57610100808354040283529160200191610527565b820191906000526020600020905b81548152906001019060200180831161050a57829003601f168201915b50505050508152602001600282015481525050815260200190600101906103e9565b505050509050919050565b600081426105629190610fb6565b9050806001856040516105759190610c4d565b9081526020016040518091039020846040516105919190610c4d565b9081526020016040518091039020819055507f782f1aed3ab0ec05a4acfc688a38588753c1da1ff5db0a13f800dbd59eb234fe8484836040516105d693929190610f42565b60405180910390a150505050565b6000604051905090565b600080fd5b600080fd5b600080fd5b600080fd5b6000601f19601f8301169050919050565b7f4e487b7100000000000000000000000000000000000000000000000000000000600052604160045260246000fd5b61064b82610602565b810181811067ffffffffffffffff8211171561066a57610669610613565b5b80604052505050565b600061067d6105e4565b90506106898282610642565b919050565b600067ffffffffffffffff8211156106a9576106a8610613565b5b6106b282610602565b9050602081019050919050565b82818337600083830152505050565b60006106e16106dc8461068e565b610673565b9050828152602081018484840111156106fd576106fc6105fd565b5b6107088482856106bf565b509392505050565b600082601f830112610725576107246105f8565b5b81356107358482602086016106ce565b91505092915050565b60008060408385031215610755576107546105ee565b5b600083013567ffffffffffffffff811115610773576107726105f3565b5b61077f85828601610710565b925050602083013567ffffffffffffffff8111156107a05761079f6105f3565b5b6107ac85828601610710565b9150509250929050565b6000806000606084860312156107cf576107ce6105ee565b5b600084013567ffffffffffffffff8111156107ed576107ec6105f3565b5b6107f986828701610710565b935050602084013567ffffffffffffffff81111561081a576108196105f3565b5b61082686828701610710565b925050604084013567ffffffffffffffff811115610847576108466105f3565b5b61085386828701610710565b9150509250925092565b6000819050919050565b6108708161085d565b82525050565b600060208201905061088b6000830184610867565b92915050565b60008115159050919050565b6108a681610891565b82525050565b60006020820190506108c1600083018461089d565b92915050565b6000602082840312156108dd576108dc6105ee565b5b600082013567ffffffffffffffff8111156108fb576108fa6105f3565b5b61090784828501610710565b91505092915050565b600081519050919050565b600082825260208201905092915050565b6000819050602082019050919050565b600081519050919050565b600082825260208201905092915050565b60005b8381101561097657808201518184015260208101905061095b565b60008484015250505050565b600061098d8261093c565b6109978185610947565b93506109a7818560208601610958565b6109b081610602565b840191505092915050565b6109c48161085d565b82525050565b600060608301600083015184820360008601526109e78282610982565b91505060208301518482036020860152610a018282610982565b9150506040830151610a1660408601826109bb565b508091505092915050565b6000610a2d83836109ca565b905092915050565b6000602082019050919050565b6000610a4d82610910565b610a57818561091b565b935083602082028501610a698561092c565b8060005b85811015610aa55784840389528151610a868582610a21565b9450610a9183610a35565b925060208a01995050600181019050610a6d565b50829750879550505050505092915050565b60006020820190508181036000830152610ad18184610a42565b905092915050565b610ae28161085d565b8114610aed57600080fd5b50565b600081359050610aff81610ad9565b92915050565b600080600060608486031215610b1e57610b1d6105ee565b5b600084013567ffffffffffffffff811115610b3c57610b3b6105f3565b5b610b4886828701610710565b935050602084013567ffffffffffffffff811115610b6957610b686105f3565b5b610b7586828701610710565b9250506040610b8686828701610af0565b9150509250925092565b600082825260208201905092915050565b6000610bac8261093c565b610bb68185610b90565b9350610bc6818560208601610958565b610bcf81610602565b840191505092915050565b60006040820190508181036000830152610bf48185610ba1565b90508181036020830152610c088184610ba1565b90509392505050565b600081905092915050565b6000610c278261093c565b610c318185610c11565b9350610c41818560208601610958565b80840191505092915050565b6000610c598284610c1c565b915081905092915050565b7f4e487b7100000000000000000000000000000000000000000000000000000000600052602260045260246000fd5b60006002820490506001821680610cab57607f821691505b602082108103610cbe57610cbd610c64565b5b50919050565b60008190508160005260206000209050919050565b60006020601f8301049050919050565b600082821b905092915050565b600060088302610d267fffffffffffffffffffffffffffffffffffffffffffffffffffffffffffffffff82610ce9565b610d308683610ce9565b95508019841693508086168417925050509392505050565b6000819050919050565b6000610d6d610d68610d638461085d565b610d48565b61085d565b9050919050565b6000819050919050565b610d8783610d52565b610d9b610d9382610d74565b848454610cf6565b825550505050565b600090565b610db0610da3565b610dbb818484610d7e565b505050565b5b81811015610ddf57610dd4600082610da8565b600181019050610dc1565b5050565b601f821115610e2457610df581610cc4565b610dfe84610cd9565b81016020851015610e0d578190505b610e21610e1985610cd9565b830182610dc0565b50505b505050565b600082821c905092915050565b6000610e4760001984600802610e29565b1980831691505092915050565b6000610e608383610e36565b9150826002028217905092915050565b610e798261093c565b67ffffffffffffffff811115610e9257610e91610613565b5b610e9c8254610c93565b610ea7828285610de3565b600060209050601f831160018114610eda5760008415610ec8578287015190505b610ed28582610e54565b865550610f3a565b601f198416610ee886610cc4565b60005b82811015610f1057848901518255600182019150602085019450602081019050610eeb565b86831015610f2d5784890151610f29601f891682610e36565b8355505b6001600288020188555050505b505050505050565b60006060820190508181036000830152610f5c8186610ba1565b90508181036020830152610f708185610ba1565b9050610f7f6040830184610867565b949350505050565b7f4e487b7100000000000000000000000000000000000000000000000000000000600052601160045260246000fd5b6000610fc18261085d565b9150610fcc8361085d565b9250828201905080821115610fe457610fe3610f87565b5b9291505056fea2646970667358221220e0ce04ccb88b4201c14f5e35a6942029018971033caa931d2480f0d625595f3e64736f6c634300081c0033",
    "linkReferences": {},
    "deployedLinkReferences": {}
}